:100000000C9432070C9479070C9479070C947907B7
:100010000C9479070C9479070C9479070C94790760
:100020000C9479070C9479070C9420290C94F329EB
:100030000C94961F0C9479070C9479070C9479070B
:100040000C9479070C9479070C9479070C94790730
:100050000C9479070C94F71F0C9479070C9479078A
:100060000C9479070C9479070C9479070C94790710
:100070000C9479070C9479070C9479070C94790700
:100080000C9479070C9479070C9479070C947907F0
:100090000C9479070C9479070C9479070C947907E0
:1000A0000C9479070C9479070C94790729001E00A9
:1000B0001F0020002100220023002400250026002C
:1000C00027002D002E002A00310035002B001400DF
:1000D0001A000800150017001C0018000C00120080
:1000E00013002F003000000031004C0039000400E4
:1000F0001600070009000A000B000D000E000F009B
:10010000330034003500280000004B00E1003100CE
:100110001D001B000600190005001100100036002C
:1001200037003800E500000052004E00E000E30018
:10013000E20000000000000000002C00E600015179
:100140000000E4005000510000004F0001003A00A0
:100150003B003C003D003E003F00400041004200AB
:10016000430044004500010001000100010034701B
:100170005200357036703770387039703A703B7095
:100180004600470048000000010001000100500047
:1001900051004F00010001000100010001000100B9
:1001A00049004A004B00010000000100010001006D
:1001B0000070307032703170AA00A800A9000100F0
:1001C0004C004D004E000000010001000100010044
:1001D000010000000000000000000100010001001B
:1001E0000000010001000100000001000100010009
:1001F00001000100010001000100010001000100F7
:1002000001000100010001000100010001000100E6
:1002100001000100010001000100010001000100D6
:1002200001000100010000000100010001000100C7
:1002300001000100010001000100010001000100B6
:1002400001000100010001000000010001000100A7
:100250000100010001000100010001000100010096
:100260000100010001000000010001000100010087
:10027000010000000000000000000100010001007A
:100280000000010001000100000001000100010068
:100290000100010001000100010001000100010056
:1002A0000100010001000100010001000100010046
:1002B0000100010001000100010001000100010036
:1002C0000100010001000000010001000100010027
:1002D0000100010001000100010001000100010016
:1002E0000100010001000100000001000100010007
:1002F00001000100010001000100010001000100F6
:1003000001000100010000000100010001000100E6
:1003100001000000000000000000010001000100D9
:1003200000000100010001000000010001000100C7
:1003300001000100010001000100010001000100B5
:1003400001000100010001000100010001000100A5
:100350000100010001000100010001000100010095
:100360000100010001000000010001000100010086
:100370000100010001000100010001000100010075
:100380000100010001000100000001000100010066
:100390000100010001000100010001000100010055
:1003A0000100010001000000010001000100010046
:1003B0000100000000000000000001000100010039
:1003C0000000010001000100000001000100010027
:1003D0000100010001000100010001000100010015
:1003E0000100010001000100010001000100010005
:1003F00001000100010001000100010001000100F5
:1004000001000100010000000100010001000100E5
:1004100001000100010001000100010001000100D4
:1004200001000100010001000000010001000100C5
:1004300001000100010001000100010001000100B4
:1004400001000100010000000100010001000100A5
:100450000100000000000000000001000100010098
:100460000000010001000100000001000100010086
:100470000100010001000100010001000100010074
:100480000100010001000100010001000100010064
:100490000100010001000100010001000100010054
:1004A0000100010001000000010001000100010045
:1004B0000100010001000100010001000100010034
:1004C0000100010001000100000001000100010025
:1004D0000100010001000100010001000100010014
:1004E0000100010001000000010001000100010005
:1004F00001000000000000000000010001000100F8
:1005000000000100010001000000010001000100E5
:1005100001000100010001000100010001000100D3
:1005200001000100010001000100010001000100C3
:1005300001000100010001000100010001000100B3
:1005400001000100010000000100010001000100A4
:100550000100010001000100010001000100010093
:100560000100010001000100000001000100010084
:100570000100010001000100010001000100010073
:100580000100010001000000010001000100010064
:100590000100000000000000000001000100010057
:1005A0000000010001000100000001000100010045
:1005B0000100010001000100010001000100010033
:1005C0000100010001000100010001000100010023
:1005D0000100010001000100010001000100010013
:1005E0000100010001000000010001000100010004
:1005F00001000100010001000100010001000100F3
:1006000001000100010001000000010001000100E3
:1006100001000100010001000100010001000100D2
:1006200001000100010000000100010001000100C3
:1006300001000000000000000000010001000100B6
:1006400000000100010001000000010001000100A4
:100650000100010001000100010001000100010092
:100660000100010001000100010001000100010082
:100670000100010001000100010001000100010072
:100680000100010001000000010001000100010063
:100690000100010001000100010001000100010052
:1006A0000100010001000100000001000100010043
:1006B0000100010001000100010001000100010032
:1006C0000100010001000000010001000100010023
:1006D0000100000000000000000001000100010016
:1006E0000000010001000100000001000100010004
:1006F00001000100010001000100010001000100F2
:1007000001000100010001000100010001000100E1
:1007100001000100010001000100010001000100D1
:1007200001000100010000000100010001000100C2
:1007300001000100010001000100010001000100B1
:1007400001000100010001000000010001000100A2
:100750000100010001000100010001000100010091
:100760000100010001000000010001000100010082
:100770000100000000000000000001000100010075
:100780000000010001000100000001000100010063
:100790000100010001000100010001000100010051
:1007A0000100010001000100010001000100010041
:1007B0000100010001000100010001000100010031
:1007C0000100010001000000010001000100010022
:1007D0000100010001000100010001000100010011
:1007E0000100010001000100000001000100010002
:1007F00001000100010001000100010001000100F1
:1008000001000100010000000100010001000100E1
:1008100001000000000000000000010001000100D4
:1008200000000100010001000000010001000100C2
:1008300001000100010001000100010001000100B0
:1008400001000100010001000100010001000100A0
:100850000100010001000100010001000100010090
:100860000100010001000000010001000100010081
:100870000100010001000100010001000100010070
:100880000100010001000100000001000100010061
:100890000100010001000100010001000100010050
:1008A0000100010001000000010001000100010041
:1008B0000100000000000000000001000100010034
:1008C0000000010001000100000001000100010022
:1008D0000100010001000100010001000100010010
:1008E0000100010001000100010001000100010000
:1008F00001000100010001000100010001000100F0
:1009000001000100010000000100010001000100E0
:1009100001000100010001000100010001000100CF
:1009200001000100010001000000010001000100C0
:1009300001000100010001000100010001000100AF
:1009400001000100010000000100010001000100A0
:100950000100000000000000000001000100010093
:100960000000010001000100000001000100010081
:10097000010001000100010001000100010001006F
:10098000010001000100010001000100010001005F
:10099000010001000100010001000100010001004F
:1009A0000100010001000000010001000100010040
:1009B000010001000100010001000100010001002F
:1009C0000100010001000100000001000100010020
:1009D000010001000100010001000100010001000F
:1009E0000100010001000000010001000100010000
:1009F00001000000000000000000010001000100F3
:100A000000000100010001000000010001000100E0
:100A100001000100010001000100010001000100CE
:100A200001000100010001000100010001000100BE
:100A300001000100010001000100010001000100AE
:100A4000010001000100000001000100010001009F
:100A5000010001000100010001000100010001008E
:100A6000010001000100010000000100010001007F
:100A7000010001000100010001000100010001006E
:100A8000010001000100000001000100010001005F
:100A90000100000000000000000001000100010052
:100AA0000000010001000100000001006432146434
:100AB0003214783C1E1E140A0500000000010101DA
:100AC0000202030405050607090A0B0C0E0F11129A
:100AD000141517191B1D1F212325282A2C2F3134EB
:100AE00036393B3E414346494C4F5255585A5D6159
:100AF00064676A6D707376797C7F8386898C8F9248
:100B000095989B9EA2A5A7AAADB0B3B6B9BCBEC12D
:100B1000C4C6C9CBCED0D3D5D7DADCDEE0E2E4E67A
:100B2000E8EAEBEDEEF0F1F3F4F5F6F8F9FAFAFB9A
:100B3000FCFDFDFEFEFEFFFFFFFFFFFFFFFEFEFED2
:100B4000FDFDFCFBFAFAF9F8F6F5F4F3F1F0EEED41
:100B5000EBEAE8E6E4E2E0DEDCDAD7D5D3D0CECBD0
:100B6000C9C6C4C1BEBCB9B6B3B0ADAAA7A5A29E42
:100B70009B9895928F8C898683807C797673706D33
:100B80006A6764615D5A5855524F4C494643413E2D
:100B90003B393634312F2C2A282523211F1D1B19C0
:100BA00017151412110F0E0C0B0A09070605050480
:100BB0000302020101010000000000000000010129
:100BC000010101010101010202020202020202020C
:100BD00003030303030303030404040404040505DB
:100BE000050505060606060607070707080808089C
:100BF0000909090A0A0A0A0B0B0B0C0C0C0D0D0D46
:100C00000E0E0F0F0F1010111111121213131414D6
:100C1000151516161717181819191A1A1B1C1C1D4A
:100C20001D1E1F1F202021222223242525262727A1
:100C300028292A2B2B2C2D2E2F2F303132333435CF
:100C400036363738393A3B3C3D3E3F4041424344DB
:100C5000464748494A4B4C4D4F50515253555657B1
:100C6000585A5B5C5E5F606263646667696A6C6D5C
:100C70006E707173747678797B7C7E8081838486D4
:100C8000888A8B8D8F91929496989A9B9D9FA1A311
:100C9000A5A7A9ABADAFB1B3B5B7B9BBBDBFC1C413
:100CA000C6C8CACCCFD1D3D6D8DADCDFE1E4E6E8D7
:100CB000EBEDF0F2F5F7FAFCFF12036B006500793B
:100CC0000062006F00610072006400000016037192
:100CD000006D006B006200750069006C00640065C7
:100CE00000720000000403090409026D0004010001
:100CF000A0FA09040000010301010009211101000B
:100D0000012240000705810308000A0904010001CF
:100D100003010200092111010001224D0007058293
:100D20000308000A09040200010300000009211160
:100D30000100012236000705830308000A090403A5
:100D40000001030000000921110100012239000700
:100D50000584032000011201100100000008EDFECF
:100D6000606001000102000105010906A1010507FB
:100D700019E029E71500250195087501810205088C
:100D800019012905950575019102950175039101D8
:100D90000507190029F71500250195F8750181024D
:100DA000C005010980A10185021601002603001A71
:100DB00081002A8300751095018100C0050C09018E
:100DC000A1018503160100269C021A01002A9C023B
:100DD000751095018100C005010902A1010901A159
:100DE00000050919012905150025019505750181E1
:100DF000029501750381010501093009311581252D
:100E00007F95027508810609381581257F95017542
:100E1000088106050C0A38021581257F95017508A1
:100E20008106C0C005010906A101050719E029E7EF
:100E3000150025019508750181029501750881014C
:100E4000050819012905950575019102950175039C
:100E500091010507190029FF150026FF0095067569
:100E6000088100C011241FBECFEFDAE0DEBFCDBF86
:100E700004B603FE27C08091A6029091A702A0911C
:100E8000A802B091A9028730904BA740B04BD1F493
:100E90001092A6021092A7021092A8021092A90224
:100EA00014BE84B7877F84BF0FB6F894A89580914D
:100EB0006000886180936000109260000FBEE0E0E7
:100EC000F8E3099511E0A0E0B1E0E6EFFAE502C031
:100ED00005900D92AE33B107D9F722E0AEE3B1E051
:100EE00001C01D92A63AB207E1F70E9474260C9445
:100EF000442D0C94000090E080E00895089508953A
:100F000081E0089581FF03C0279A2F9808952798BC
:100F1000FCCF81E008950C9480070E94D0172FEF3A
:100F200084E39CE0215080409040E1F700C0000045
:100F30000C941A20EF92FF920F931F93CF93DF939D
:100F40007C01DC010D911C91119780918F01811121
:100F500043C012968C918823D1F1C8010E94521D82
:100F6000C82F682FC8010E94FE1CB8018C2F0E9458
:100F70004609EC01B7010E948B07882309F468C079
:100F8000B701CE010E947F0B882309F461C0CE33E4
:100F9000B0E7DB0770F4C433E0E7DE0710F5C130DB
:100FA000F0E7DF0709F45CC050F5C115D04709F43C
:100FB0004AC081E08093400180934101C701DF91E5
:100FC000CF911F910F91FF90EF900C948907C8016A
:100FD0000E942A1DC82FC9CFC8010E94521DB80106
:100FE000C6CFFE01E553F047D70112968C91E93048
:100FF000F10508F040C0EA5BF24D0C94F62CCE01EE
:10100000825090474397A8F6F70182818823B1F276
:101010000E94191F811102C00E94F31E0E94361FF8
:1010200090E09093970280939602FE01E350F04780
:10103000809196028160E231F10508F047C0E15BE2
:10104000F24D0C94F62CF701828181110E948D07DC
:1010500080E0DF91CF911F910F91FF90EF90089565
:10106000D70112968C91882399F380912702816091
:1010700080932702EDCF882359F30E940710E8CF11
:10108000882331F30E94FD0FE3CF882309F30E94E8
:10109000DA0EDECF8823E1F20E94F20ED9CF882348
:1010A000B9F20E94110FD4CF882391F20E94290F28
:1010B000CFCF882369F20E94410FCACF882341F223
:1010C0000E94590FC5CF809196028260809396024C
:1010D000809196020E943A1F0E94D017B9CF80914A
:1010E00096028460F3CF809196028860EFCF809162
:1010F00096028061EBCF809196028062E7CF80916B
:1011000096028064E3CF809196028068DFCF809161
:1011100096028C60DBCF809196028E7FD7CF809134
:1011200096028D7FD3CF809196028B7FCFCF809117
:101130009602877FCBCF809196028F7EC7CF80911A
:1011400096028F7DC3CF809196028F7BBFCF809117
:1011500096028F77BBCF80919602837FB7CF909115
:101160009602892F97FB87F98058B0CF882361F0CA
:10117000109240010E94C61F90933F0180933E0150
:1011800082E00E94151564CF8091400181110FC04B
:1011900080913E0190913F010E94D21F883C9105B1
:1011A00030F486E20E94EA1386E20E94C61482E0CE
:1011B0000E941C154DCF882351F0109241010E94CE
:1011C000C61F90933F0180933E0180E2DACF809169
:1011D000410181110FC080913E0190913F010E9419
:1011E000D21F883C910530F487E20E94EA1387E21F
:1011F0000E94C61480E2DCCF0C94D00B269A2E9865
:101200008FEF9FEF909387008093860082E2809318
:10121000800089E1809381000C9426240E94FE08BE
:101220000C94CE0B282F2E9880918000211108C09D
:101230008F7D8093800010928B0010928A00089519
:101240008062809380002F3039F48FEF9FEF90936E
:101250008B0080938A0008958FE090E0821B9109B3
:1012600023E0880F991F2A95E1F72FEF3FEF02C087
:10127000369527958A95E2F730938B0020938A0064
:1012800008950C9482070C9441090895E72FF0E02B
:1012900095E0899FE00DF11D112484E0EE0FFF1F02
:1012A0008A95E1F7E60FF11DEE0FFF1FE455FF4FA2
:1012B000859194910895FC01EE0FFF1FE455F54FC1
:1012C0008591949108950E9446090E94030B9C0108
:1012D000211581E5380708F046C0211590E539074A
:1012E00008F00CC1283E310518F5203E3105C8F53F
:1012F000283A310578F4253A310508F097C02130B5
:10130000310579F1C9010497813A910550F130E036
:1013100020E027C02D3B310508F493C0C901805C53
:1013200091098032910598F70E945B099C0119C0D0
:10133000211580E3380770F4211590E2390708F091
:10134000D7C02F3F310509F060F4203F3105F8F296
:10135000306507C0211580E4380708F4CCC03F7021
:10136000306AC9010895211590E73907C8F521159C
:1013700080E6380708F0FAC0211594E53907F0F443
:10138000211583E5380708F0D8C0211592E5390703
:1013900008F4CEC0C9018370992741E050E002C033
:1013A000440F551F8A95E2F72695269580E2289FDF
:1013B00090011124242B352B3C68D3CF211595E5C2
:1013C000390708F4CEC0C90195558F3F910511F03A
:1013D00008F09DCF322F222722273F713062C1CFE4
:1013E000213380E7380709F4C3C0A0F4203380E735
:1013F000380748F4203290E7390708F488CF2052A4
:101400003047346DAECF2033304709F080CF20E035
:1014100031EDA7CF223390E7390709F4ACC023336D
:10142000304709F074CF20E033ED9BCF253A3105EA
:1014300009F4A4C0263A310509F0A3C022E830E43B
:1014400090CF283A310509F49FC0293A310509F4B3
:101450009EC02A3A310509F49DC02B3A310509F4A2
:101460009CC02C3A310509F49BC02B3B310509F493
:101470009AC02C3B310509F499C02D3A310509F485
:1014800098C0203B310509F497C02E3A310509F484
:1014900096C02F3A310509F495C0213B310509F476
:1014A00094C0223B310509F493C0233B310509F474
:1014B00092C0243B310509F491C0253B310509F464
:1014C00090C0263B310509F48FC0273B310509F454
:1014D0008EC0283B310509F48DC0293B310509F444
:1014E0008CC02A3B310509F48BC020E034E439CFAD
:1014F000C9019F7019CF3327306C33CFC90154E035
:10150000969587955A95E1F78370422F46954695B3
:10151000437090E2499FA0011124582B822F8370C1
:1015200021E030E002C0220F331F8A95E2F742CF5C
:10153000322F2227216F306A14CFC9018370992777
:1015400041E050E002C0440F551F8A95E2F726950E
:10155000269580E2289F90011124242B352B3A6890
:1015600000CF322F2227246F306AFBCE3F7036CF58
:1015700020E030EDF6CE20E032EDF3CE21E830E48D
:10158000F0CE23E830E4EDCE22EE34E4EACE29EECC
:1015900034E4E7CE2AEE34E4E4CE25EB34E4E1CEC5
:1015A00026EB34E4DECE23EB34E4DBCE24EB34E470
:1015B000D8CE27EB34E4D5CE2CEC34E4D2CE2DECCF
:1015C00034E4CFCE23E835E4CCCE2AE835E4C9CEE6
:1015D00022E935E4C6CE24E935E4C3CE21E236E47F
:1015E000C0CE23E236E4BDCE24E236E4BACE25E214
:1015F00036E4B7CE26E236E4B4CE27E236E4B1CE06
:101600002AE236E4AECE803E910581F1C8F4813302
:10161000910509F462C048F48932910509F456C075
:101620008A32910509F460C0089589339105B9F0B3
:1016300082389105A1F08533910509F440C00895E1
:10164000863E910561F138F4823E9105B1F0833E0A
:101650009105E1F00895873E910551F1089520919B
:1016600096022370D9F080EE90E0089520919602C2
:1016700020FF14C089E390E008952091960222FF94
:101680000DC024FD09C083EE90E0089520919602DC
:1016900022FD31C024FF02C090E080E00895209137
:1016A000960223FFFBCF24FDF7CF87EE90E008954D
:1016B0002091960223FFEECF86EE90E008952091D0
:1016C000960225FFEBCF89E290E0089520919602E3
:1016D00025FFE4CF85E390E008952091960226FF50
:1016E000DDCF8AE290E008952091960226FFD6CFC2
:1016F00081E390E0089582EE90E0089508950F93BD
:101700001F93CF938C01FB018281811106C0C1E040
:101710008C2FCF911F910F910895C0914F01C1114E
:1017200025C00531104799F70E947E0B81E0809318
:101730004F010E94C61F90934E0180934D0110925D
:1017400042011092440110924301109246011092FE
:101750004501109248011092470110924A011092DF
:10176000490110924C0110924B01D2CF80914D0152
:1017700090914E010E94D21F883C910540F68091C5
:101780004201E82FF0E0EE0FFF1FED5BFE4F1183EB
:1017900000838F5F80934201C0E0BACF0C947E0734
:1017A0000C947F07CF93DF9385B7806885BF85B79B
:1017B000806885BFA4E2B1E049E251E0C1E0D0E039
:1017C0008D91E82FE295EF70F0E061A18F709E019E
:1017D00001C0220F8A95EAF7922F9095962391A344
:1017E00082A1822B82A34A175B0751F7A4E1B1E0E3
:1017F00061E070E08D91E82FE295EF70F0E041A19B
:101800008F709B0101C0220F8A95EAF7922F909565
:10181000942391A382A1822B82A381E0A432B807F2
:1018200049F710925B0110925A01109251011092E7
:10183000500110925D0110925C01109253011092C0
:10184000520110925F0110925E01109255011092A8
:101850005401109261011092600110925701109290
:101860005601109263011092620110925901109278
:101870005801DF91CF910C940E094F925F927F92A5
:101880008F929F92AF92BF92CF92DF92EF92FF9290
:101890000F931F93CF93DF9390E5492E91E0592E3C
:1018A00024E2E22E21E0F22E01E010E0992493944C
:1018B000E201A990B9902E01DE011E921E92F7015D
:1018C00081917F01E82FE295EF70F0E091A18F7098
:1018D000980101C0220F8A95EAF7892F822B81A3F4
:1018E00082A1822E8094882182A380EA8A95F1F7D2
:1018F00084E1C82E81E0D82E90E080E0E601799165
:101900006E01472F42954F7050E0EA0178A04D914B
:101910005C9111977F70E80102C0CC0FDD1F7A95B2
:10192000E2F7BE01672109F072C0B801082E02C0BB
:10193000660F771F0A94E2F7462B572B11965C939C
:101940004E93019680319105C9F681A1882281A22A
:1019500082A1282B22A38D919C91A816B90641F053
:10196000909264010E94C61F909366018093650166
:10197000DAE54D16D1E05D0609F09ACF8091640159
:10198000882391F180916501909166010E94D21F98
:10199000069750F1809150019091510190935B0115
:1019A00080935A01809152019091530190935D016F
:1019B00080935C01809154019091550190935F0157
:1019C00080935E018091560190915701909361013F
:1019D0008093600180915801909159019093630127
:1019E00080936201109264010E94FC0881E0DF9103
:1019F000CF911F910F91FF90EF90DF90CF90BF900C
:101A0000AF909F908F907F905F904F90089570E07F
:101A100060E092CFE82FF0E0EE0FFF1FE65AFE4F96
:101A200080819181089508959C01CB0161B3542F69
:101A30005095562361B3462B6FB7F894820F931FCE
:101A40002817390711F46FBF0895F90171919F01AB
:101A5000E8E041BB000000C077FF51BB770F0000FA
:101A600000C000C000C051BB00C0EA9591F7E8CFAC
:101A7000FC0190B3942B90BB9B01220F331F620F8C
:101A8000731FCF010E94140D87EC90E00197F1F7CE
:101A900000C00000089541E00C94380DAF92BF9251
:101AA000CF92DF92EF92FF920F931F93CF93DF932A
:101AB0007C01E901842F242F662309F43FC0C42E42
:101AC000D12C8FEF90E0861B9109489F8001499FA0
:101AD000100D1124212F812F9927C81AD90A9CE3B0
:101AE000A92EB12CC701B5010E94CE2CFB01BC016F
:101AF000C69EC001C79E900DD69E900D1124B501C3
:101B00000E94CE2CE330F10509F443C080EFE816C3
:101B1000F10468F4E130F10591F13297A1F18CE321
:101B2000E816F10440F180E020E040E007C0E43036
:101B3000F10599F1842F861B3597A9F7E42FF0E082
:101B4000E754F44F4491E22FF0E0E754F44F9491BE
:101B5000E82FF0E0E754F44FE49149839883EA8357
:101B6000DF91CF911F910F91FF90EF90DF90CF9079
:101B7000BF90AF900895812F262F210FDFCF812FA7
:101B8000242F461BDBCF862F810FE42F412F2E2FD2
:101B9000D5CFE42FE61B842FF9CF842F462F410F9A
:101BA000CDCF88E090E00C94042DAB01BC0188E01F
:101BB00090E00C94222DCF93DF9300D000D0CDB7CE
:101BC000DEB7E4E5F2E083E0808311828FEF828369
:101BD00083838091540290915502A0915602B09156
:101BE000570289839A83AB83BC83BC01CD010F90DC
:101BF0000F900F900F90DF91CF910C94D50D8091A5
:101C00005402ECE5F2E080FF06C062E170E08CE592
:101C100092E00C944B0D118210821282339682E076
:101C2000E239F807C1F7F1CFECE5F2E08183608398
:101C30004283339692E0E239F907C1F70C94FF0D25
:101C4000EF92FF920F931F93CF93DF9300D00F92E9
:101C5000CDB7DEB7182FE92EF62E042F809154024F
:101C600090915502A0915602B0915702809358026C
:101C700090935902A0935A02B0935B028091540250
:101C800080FF1FC09E012F5F3F4F812F9E2D0E941E
:101C90004E0D8091580210FB87F9809358021695DB
:101CA000809159028078182BE0FA17F910935902A5
:101CB000F0925A0200935B024B8169818A810E94F3
:101CC000140E0F900F900F90DF91CF911F910F91F5
:101CD000FF90EF9008950F931F93CF93DF9300D061
:101CE00000D00F92CDB7DEB789839D83062F142FC6
:101CF0008091540280FF54C0982F9E77923091F5C6
:101D000089819D810E94200E80915402B981B0FB8F
:101D100087F980935402B695809155028078B82B4C
:101D20008D8180FBB7F9B093550200935602109352
:101D300057028091540290915502A0915602B091A1
:101D4000570289839A83AB83BC83BC01CD010F907A
:101D50000F900F900F900F90DF91CF911F910F91E7
:101D60000C94D50D982F96959F732EE3290F2F7302
:101D7000243018F410915702C7CF965C9F739930A6
:101D800018F6881F8827881F909155029D83990F08
:101D9000982B9983AD81A7FBAA27A0F9AD83B4CF77
:101DA0000F900F900F900F900F90DF91CF911F9198
:101DB0000F910895E4E5F2E02081221F2227221FDF
:101DC00030915502432F440F842F822B37FB9927E4
:101DD00090F9089668E671E00E94E22C43816281E6
:101DE0000C946B0E20915402221F2227221F309147
:101DF0005502432F440F842F822B37FB992790F9EC
:101E00008830910540F4805A9E4F4091570260916E
:101E100056020C946B0E089768E671E00E94E22C63
:101E2000F4CF60915602683F90F4685F809154024D
:101E3000881F8827881F90915502292F220F97FB12
:101E4000992790F940915702822B0C946B0E6FEFFB
:101E5000EDCF60915602683090F068508091540246
:101E6000881F8827881F90915502292F220F97FBE2
:101E7000992790F940915702822B0C946B0E60E0E9
:101E8000EDCF40915702483F90F4485F8091540253
:101E9000881F8827881F90915502292F220F97FBB2
:101EA000992790F960915602822B0C946B0E4FEF9C
:101EB000EDCF40915702483090F048508091540245
:101EC000881F8827881F90915502292F220F97FB82
:101ED000992790F960915602822B0C946B0E40E08A
:101EE000EDCFCF93DF9300D000D0CDB7DEB7909188
:101EF000540290FF47C09178811132C09260909354
:101F000054028091540290915502A0915602B091D2
:101F1000570289839A83AB83BC83BC01CD010E94A5
:101F2000D50D80915402982F9E77923009F510922A
:101F30007C01881F8827881F90915502292F220F26
:101F400097FB992790F94091570260915602822B96
:101F50000F900F900F900F90DF91CF910C946B0E1C
:101F6000893110F09063CBCF8F73880F982BC7CF38
:101F7000982F9695925C9F739631D8F691E0909346
:101F80007C01D7CF0F900F900F900F90DF91CF91E2
:101F900008958091270281608093270281E08093D9
:101FA0007D010E94191F811104C00E94F31E0E942E
:101FB000DB0D0E94D10D6093540270935502809303
:101FC0005602909357026E7761F40E94DB0D0E94D7
:101FD000D10D6093540270935502809356029093F2
:101FE000570281E080937C018091540280FF04C0FD
:101FF00086958F730C94710F089580915402869585
:102000008F738F5F893108F081E00C94710FCF934B
:10201000DF9300D000D0CDB7DEB790915402892F66
:102020008E7F90FF81608093540280915402909142
:102030005502A0915602B091570289839A83AB83CF
:10204000BC83BC01CD010E94D50D8091540280FF5C
:102050000AC086958F730F900F900F900F90DF91AD
:10206000CF910C94710F10927C019FEFA0E7B2E02A
:102070009150A040B040E1F700C000000F900F90D9
:102080000F900F90DF91CF910C94FF0DCF93C82F3D
:1020900080917A0190917B010E94D21FEC2FF0E099
:1020A000EB54F54FE491E817190609F010F50E947A
:1020B000C61F90937B0180937A01E0917901F0E053
:1020C000E754F54F449180915402881F8827881F58
:1020D00090915502292F220F97FB992790F9609133
:1020E0005602822B0E94200E809179018F5F80938F
:1020F0007901CF910895CF93C82F80917701909166
:1021000078010E94D21FEC2FF0E0EE54F54FE491DD
:10211000E817190609F0E8F40E94C61F90937801A9
:10212000809377014091570260915602809175012A
:10213000909176010E94200E809175019091760118
:10214000019668E671E00E94CE2C90937601809310
:102150007501CF910895CF92DF92EF92FF921F9376
:10216000CF93DF93182F80917301909174010E9497
:10217000D21FE12FE695F0E0EE54F54FE491E81719
:10218000190609F0C0F50E94C61F90937401809350
:1021900073018CE5E82E82E0F82ED0E0C0E098E6EE
:1021A000C92EDD24D39480917101909172018C0F1E
:1021B0009D1FB6010E94CE2C97014091570260915D
:1021C00056020E944E0D649683E0E80EF11CC8365C
:1021D00081E0D80741F70E94FF0D80917101909135
:1021E000720110FF10C00196BE010E94CE2C909388
:1021F000720180937101DF91CF911F91FF90EF9059
:10220000DF90CF9008950197F2CFAF92BF92CF9217
:10221000DF92EF92FF920F931F93CF93DF93C82F1C
:10222000DD24DA9480FD02C0DD24D39480916F0117
:10223000909170010E94D21FC695EC2FF0E0E155FD
:10224000F54FE491E817190611F008F053C00E9409
:10225000C61F9093700180936F01CCE5D2E010E02F
:1022600000E097E0A92EB12C198218821A8287E02B
:10227000E82EF12CC12C80916E018C0D87FD8E5EB5
:10228000082E000C990B80179107E9F42091570252
:102290002E9DC0012F9D900D1124B5010E94E22CAE
:1022A000462F80915402881F8827881F90915502DD
:1022B000592F550F97FB992790F99E01609156026F
:1022C000852B0E944E0DCD0C81E0E81AF10899F69D
:1022D0000F5F1F4F23960231110531F60E94FF0D4B
:1022E00080916E0191E0D91212C081110EC081E17E
:1022F00080936E01DF91CF911F910F91FF90EF902E
:10230000DF90CF90BF90AF9008958150F1CF90E0D3
:102310000196B8010E94E22CEBCFBF92CF92DF92E0
:10232000EF92FF920F931F93CF93DF93CDB7DEB75A
:10233000E6970FB6F894DEBF0FBECDBF182F809181
:102340006C0190916D010E94D21FE12FF0E0E455E5
:10235000F54FE491E817190611F008F07AC00E94D1
:10236000C61F90936D0180936C018E010F5F1F4F0C
:10237000F12CE12C6801D80111961C9211971C9246
:1023800012961C92B12C9091000180916B01B99E24
:10239000800D112482310CF081E187FD80E0082E50
:1023A000000C990B8E159F05A1F480915402881F93
:1023B0008827881F90915502592F550F97FB992711
:1023C00090F998014091570260915602852B0E9426
:1023D0004E0DB394B7E0BB12D6CFEFEFEE1AFE0A64
:1023E0000D5F1F4FF2E1EF16F10429F62CE532E004
:1023F00009E010E052E1E52EF12CC801B7010E947E
:10240000E22CFC01EE0FFF1FE80FF91FEC0DFD1D84
:102410008181D90111968C93119780818C9382814F
:1024200012968C930F5F1F4F2D5F3F4F0B3111059D
:1024300021F70E94FF0D9091000180916B01913076
:10244000E1F48A3FB4F489EF80936B018FEF8093BE
:102450000001E6960FB6F894DEBF0FBECDBFDF9148
:10246000CF911F910F91FF90EF90DF90CF90BF9091
:102470000895815080936B01ECCF89312CF088E175
:1024800080936B0181E0E3CF8F5FF4CFCF93DF9335
:102490008091690190916A010E94D21F883E934009
:1024A00028F10E94C61F90936A0180936901809170
:1024B0006701909168010196817099279093680156
:1024C00080936701CCE5D2E09E0140915702609174
:1024D000560290E080E00E944E0D239682E0C239C1
:1024E000D80791F7DF91CF910C94FF0DDF91CF9139
:1024F000089580917C01882371F180915402869522
:102500008F739EE3980F9F73943018F482500C944D
:1025100046109AE3980F9F73933018F486500C94EA
:102520007B1097E3980F9F73963018F489500C94A2
:10253000AB1091E3980F9F73963018F48F500C9462
:1025400005119BE2980F9F73933018F485510C94FA
:102550008D110C944612089590938301809382010B
:102560000895E0918201F0918301309721F001906C
:10257000F081E02D099480E00895E0918201F091CE
:102580008301309721F00280F381E02D09940895B2
:10259000E0918201F0918301309721F00480F58170
:1025A000E02D099408952091800130918101281730
:1025B000390771F09093810180938001E09182014D
:1025C000F0918301309721F00680F781E02D099486
:1025D000089520917E0130917F012817390771F00D
:1025E00090937F0180937E01E0918201F0918301BD
:1025F000309721F00084F185E02D09940895089525
:102600000C94FF120E94BD1F0E94D20B0E948720D3
:102610000E9426240C94C90F5F926F927F928F9232
:102620009F92AF92BF92CF92DF92EF92FF920F9361
:102630001F93CF93DF9300D000D00F92CDB7DEB7BA
:102640000E943D0C95E8A92E91E0B92E10E000E023
:1026500088248394912C502E802F0E940A0D7C0197
:10266000F501C190D1905F01C816D90609F45DC08B
:102670008091270281FD0E94130D90E080E0CE241E
:10268000DF243401082E02C0660C771C0A94E2F79E
:10269000960126213721232B09F442C089835A82CF
:1026A000E620F72081E0EF2809F480E08B830E9488
:1026B000C61F8160782F9D838C8349815A816B81ED
:1026C0008D810E94C113000F111FF801EB57FE4FBF
:1026D0008081918168267926718260820E943423EC
:1026E0000E94B112909184018917B1F10E94B11238
:1026F000809384010F900F900F900F900F90DF91B7
:10270000CF911F910F91FF90EF90DF90CF90BF90EE
:10271000AF909F908F907F906F905F900C94430943
:1027200001968031910509F0ACCF0F5F1F4F053046
:10273000110509F090CF8FEF89838A831B820E9455
:10274000C61F8160782F9D838C8349815A816B815C
:102750008D810E94C113C2CF0F900F900F900F90E8
:102760000F90DF91CF911F910F91FF90EF90DF902D
:10277000CF90BF90AF909F908F907F906F905F9021
:102780000895CF93DF93CDB7DEB72B970FB6F894AC
:10279000DEBF0FBECDBF4F83588769877A878B878F
:1027A0001E8285E0FE013796DE01119601900D92A2
:1027B0008A95E1F749815A816B817C818D819E8167
:1027C0002B960FB6F894DEBF0FBECDBFDF91CF9131
:1027D0000C94581A882309F4D8C0823871F40E94E6
:1027E000B11281FDD2C089E30E94FA1D0E94C41E6D
:1027F00089E30E94371E0C94C41E833859F40E944A
:10280000B11280FDC2C083E50E94FA1D0E94C41E61
:1028100083E5EFCF843859F40E94B11282FDB5C030
:1028200087E40E94FA1D0E94C41E87E4E2CF9CEF59
:10283000980F913A18F40E94FA1DDDCF90E2980F9C
:10284000983050F4877091E001C0990F8A95EAF7AB
:10285000892F0E947B1ECFCF9BE5980F933070F499
:10286000853A31F0863A39F083E890E00C94D3123F
:1028700081E890E0FBCF82E890E0F8CF98E5980FF0
:10288000953108F082C0883A09F440C0893A09F4C9
:1028900040C08A3A09F440C08B3A09F440C08C3AEF
:1028A00009F440C08B3B09F440C08C3B09F440C0A4
:1028B0008D3A09F440C0803B09F440C08E3A09F4D7
:1028C00040C08F3A09F440C0813B09F440C0823BCC
:1028D00009F440C0833B09F440C0843B09F440C084
:1028E000853B09F440C0863B09F440C0873B09F4AE
:1028F00040C0883B09F440C0893B09F440C08A3B92
:1029000009F440C090E080E00C94E91282EE90E07F
:10291000FBCF89EE90E0F8CF8AEE90E0F5CF85EB23
:1029200090E0F2CF86EB90E0EFCF83EB90E0ECCF3E
:1029300084EB90E0E9CF87EB90E0E6CF8CEC90E081
:10294000E3CF8DEC90E0E0CF83E891E0DDCF8AE843
:1029500091E0DACF82E991E0D7CF84E991E0D4CF5A
:1029600081E292E0D1CF83E292E0CECF84E292E0A6
:10297000CBCF85E292E0C8CF86E292E0C5CF87E276
:1029800092E0C2CF8AE292E0BFCF0895882309F493
:102990004BC0823871F40E94B11281FF45C089E3B7
:1029A0000E94FA1D0E94C41E89E30E94371E0C94E7
:1029B000C41E833859F40E94B11280FF35C083E5EC
:1029C0000E94FA1D0E94C41E83E5EFCF843859F49B
:1029D0000E94B11282FF28C087E40E94FA1D0E9463
:1029E000C41E87E4E2CF9CEF980F913AF0F290E298
:1029F000980F983050F4877091E001C0990F8A9534
:102A0000EAF7892F0E94811ED2CF9BE5980F933061
:102A100020F490E080E00C94D312885A853120F4A1
:102A200090E080E00C94E9120895882321F00E9440
:102A30007B1E0C94C41E0895882321F00E94811EE1
:102A40000C94C41E08958F929F92AF92BF92DF9212
:102A5000EF92FF920F931F93CF93DF9300D000D09C
:102A60000F92CDB7DEB77C016D837983FC010581C0
:102A700002950F70128111110E949A1E0E94F31D7F
:102A8000D82E882371F01123A1F08D81805E8830CB
:102A900080F082E00E94DD1D0E94F31D91E0D82E9F
:102AA000D926E981E295EF70F0E0EF59F24D0C94F0
:102AB000F62CD12CF6CF09810F70F981F07F11F03F
:102AC0000295007F1123B1F0002361F08D81805EBB
:102AD000883018F02D81211109C0802F0E947B1EA3
:102AE0000E94C41E8D810E94EA1315C0802F0E948F
:102AF0008C1EF6CF8D810E94C614002361F08D815B
:102B0000805E883018F03D81311129C0802F0E94ED
:102B1000811E0E94C41EDD2009F4F3C10E94D01D55
:102B200080FDEFC1F70112820E94CA1D0E94161C8F
:102B3000C7010E9492170E94CA1D0F900F900F901C
:102B40000F900F90DF91CF911F910F91FF90EF9019
:102B5000DF90BF90AF909F908F900C94381C802F87
:102B60000E94921ED6CF49814F70B42E5981507F5A
:102B7000503219F0B29480EFB8228D81882369F029
:102B8000813029F1112369F1002359F0F701858182
:102B900080FFA8CF8F70858304C0112361F00111DD
:102BA00004C08B2D0E941515B6CF8B2D0130D1F7A7
:102BB0000E94AE1EB0CF011106C00E94B11E8B2D27
:102BC0000E941C15A8CF013009F4A5CFF6CF112320
:102BD00021F0063008F09FCFE4CF053008F09BCFFE
:102BE000EECF002361F38D810E94C61494CF8981BA
:102BF00086958695837069F0813009F08CCF8D8140
:102C000099819370111102C090E080E00E94E91256
:102C100082CF8D8199819370111102C090E080E084
:102C20000E94D31278CF8D81112329F00E94422275
:102C30000E94292370CF0E94AA22FACF8981837033
:102C400009F05FC0111167CF2D812295269527705D
:102C5000220F220F8D818F7090E0B0E0A0E04C0138
:102C60005D01022E04C0880C991CAA1CBB1C0A948E
:102C7000D2F7FD8160E070E0CB01F4FF0FC06FE0A0
:102C800070E080E090E004C0660F771F881F991FF6
:102C90002A95D2F760957095809590952981269513
:102CA000269523702D832230B1F0233019F19B013A
:102CB000AC01282939294A295B2929833A834B8386
:102CC0005C833D8169817A818B819C813130B1F057
:102CD0000E94A31B20CF9B01AC01282939294A2936
:102CE0005B2929833A834B835C83CA01B9010E9423
:102CF000CD1B11CF0E94A31BC501B4010E94791BFB
:102D00000ACF8695112311F089818170882309F4F7
:102D100002CF2D81229526952770220F220F8D81BB
:102D20008F7090E0B0E0A0E04C015D01022E04C085
:102D3000880C991CAA1CBB1C0A94D2F73D8160E048
:102D400070E0CB0134FF0FC06FE070E080E090E0F6
:102D500004C0660F771F881F991F2A95D2F76095C8
:102D600070958095909549814695469543704D8321
:102D70004230B1F0433019F19B01AC0128293929C7
:102D80004A295B2929833A834B835C833D8169818E
:102D90007A818B819C813130B1F00E94A91CBBCE1D
:102DA0009B01AC01282939294A295B2929833A83C7
:102DB0004B835C83CA01B9010E94D31CACCE0E9434
:102DC000A91CC501B4010E947F1CA5CE3D81323FE4
:102DD00009F447C080F4303F79F1313FD9F1832FB6
:102DE000805E8031D0F0112309F456C001117ACEF3
:102DF00089818F7133C04D81433FD1F1443F99F7B1
:102E0000112309F43FC089818F7189830E94161CA8
:102E100063E089810E94D41D7ECE5D815F705D83F9
:102E200089818F71112321F00E94161C8D81BACEE9
:102E30000E94381C8D81C4CE112341F0053008F06A
:102E40006ACE89818F710E945D1C65CE063008F0C4
:102E500062CEF7CF89818F71112339F00E94161C41
:102E60005ACE89818F711123C9F30E94381C53CE29
:102E7000112329F089818F710E94011C4CCE0E9480
:102E8000F71B49CE81E00E94DD1D023008F443CEDD
:102E900082E00E94DD1D3FCE0111A5CE89818F7198
:102EA000E4CF49814F706D81C7010E947B070E946A
:102EB000F21A31CE11112FCEE981EF70E983E230A1
:102EC00099F028F4E1110DC00E94382424CEF98134
:102ED000F33069F0F43009F01ECE8D810E94A024F9
:102EE0001ACE0E94502417CE0E94692414CE0E944C
:102EF0007D2411CE49814F706D81C7010E94450923
:102F00000ACE0F900F900F900F900F90DF91CF91FE
:102F10001F910F91FF90EF90DF90BF90AF909F9027
:102F20008F9008950F931F93CF93DF93EC018B81C4
:102F30009C81892B29F08881998189238F3F29F4ED
:102F4000DF91CF911F910F910895CE010E949A07B2
:102F50008823B1F3688179818A810E94A01D8C0148
:102F60000E94FD1C0E946E1BB801CE01DF91CF9123
:102F70001F910F910C9423150E949A1E0E94AB1E64
:102F80000E946D1E0E94C41E0E941A240E942923C2
:102F900090E080E00E94D31290E080E00C94E9126F
:102FA0000E94891E0C94BC170E94941D282F892F03
:102FB00082958F70903C80F48A30B0F4843020F495
:102FC000823090F480E008958630E1F781E0203E81
:102FD00088F0213FB9F70EC08C3011F08F3091F797
:102FE00093FB882780F9089581E0203F39F018F499
:102FF000203E40F70895243F29F7FCCF0895CF9352
:10300000DF9300D000D00F92CDB7DEB70F900F90B6
:103010000F900F900F90DF91CF910895CF93DF9392
:1030200000D000D000D0CDB7DEB726960FB6F8940A
:10303000DEBF0FBECDBFDF91CF9108951F93CF9319
:10304000DF93E091900116E0809191018E1304C00E
:10305000DF91CF911F910895CE2FD0E01E9FF001F8
:103060001124EE56FE4F408151816281738184812B
:1030700095810E940E18FE013196E770E5CF4091D0
:10308000C2015091C3016091C4017091C50180914A
:10309000C6019091C7010C940E181F93CF93DF9334
:1030A0008091C701807FC1F48091C4018823A1F081
:1030B00080919001C09191016091C2017091C30112
:1030C0004091C5015091C601D62FD723DA01A095B2
:1030D000B09516E0C81304C0DF91CF911F910895F9
:1030E00090E04115510511F0DF3F31F401968770F2
:1030F000F1CF2A0F3B1F17C0189FF001199FF00D49
:103100001124EE56FE4F21812713F0CF2081261384
:10311000EDCF22812111EACF238134812417350795
:1031200040F3241B350B283C310500F72091C701E3
:103130002F7020612093C70126E0289FF001299F6E
:10314000F00D1124E956FE4F80818F7080618083DD
:1031500082EC91E00E949217DF91CF911F910C9425
:103160001E189F92AF92BF92CF92DF92EF92FF9282
:103170000F931F93CF93DF93CDB7DEB72B970FB687
:10318000F894DEBF0FBECDBF8C0185E0F801DE01F3
:10319000179601900D928A95E1F7D8014C911196FE
:1031A0005C9111971296EC9012978091C5019091C5
:1031B000C601009709F46BC12091C2013091C3018F
:1031C000632F62236F3F09F462C11396CD90DC90A8
:1031D0009090C401992009F4F8C0C816D90608F4E3
:1031E0003FC0F601E81BF90BCF01FF24F394883CA4
:1031F000910508F0F12C82ECA82E81E0B82E809188
:10320000C701982F907FFF2009F4B7C0911180C0AB
:10321000FE2C35132AC0241328C0E11026C08F705D
:1032200080618093C7010E943F18C5010E949217D8
:103230008091C701D80115968C938F2D2B960FB6D0
:10324000F894DEBF0FBECDBFDF91CF911F910F91DC
:10325000FF90EF90DF90CF90BF90AF909F90089538
:10326000809590958C0D9D1DC0CFCD2829F0842F81
:1032700085238F3F09F019C180E0B82FB170DB2E94
:10328000E09190012091910136E080FD1CC0EE207C
:10329000A1F28091C70181608093C701F12CCDCF4D
:1032A0008E2F90E03E9FF0011124EE56FE4F61817B
:1032B000651306C06081641303C062816E11E7CF9D
:1032C000FC013196E770E213EBCF4F8358878F8173
:1032D00098850E94941D292F22952F70903260F0BE
:1032E000225F2F70223078F49F7051F0F8019581A1
:1032F000907F31F4D12C0AC09F7011F08823D1F354
:10330000805E8830B8F3C8010E949217FD2C95CFDB
:10331000351306C0241304C0D801EE2009F47BC085
:103320004F8358878F8198850E94D417882309F48A
:10333000B8C0EE2009F4B5C08091C701803270F0AA
:103340002091C2013091C3013A8329831B82DD821F
:10335000CC828E83CE0101960E94921786E0F801FE
:10336000A2ECB1E001900D928A95E1F70E944D1810
:103370000E943F18FF24F39460CF911113C07C2D5D
:10338000DB86CA866E2D8B850E94FF1782EC91E04A
:103390000E94921786E0F50111928A95E9F70E9442
:1033A0003F184BCF3513BCCF2413BACFE110B8CFA1
:1033B000D80115968C93C8010E94921786E0F501FA
:1033C00011928A95E9F7F92C38CFC816D90688F1F9
:1033D000B601681B790BCB01F12C883C910508F0F4
:1033E00047C0FE2CEE2009F45CC0351330C0241316
:1033F0002EC08091C70180FD21C0982F907FF1F0F1
:10340000D80115968C931597903F39F0982F907F9F
:10341000905F8F70892B15968C93C8010E9492172C
:1034200086E0F801A2ECB1E001900D928A95E1F7F7
:10343000B6CF809590958C0D9D1DCECF86E0F8017E
:10344000A2ECB1E001900D928A95E1F7F6CE4F83A0
:1034500058878F8198850E94D41781117FCF8091E2
:10346000C70181608093C701C8010E949217E5CE11
:103470007C2DDB86CA866E2D8B850E94FF1786E029
:10348000E2ECF1E0DF011D928A95E9F788CFEE20AA
:1034900041F04F8358878F8198850E94D4178111FE
:1034A0005DCFC8010E94921765CF81E08E25E5CEE1
:1034B0001F93CF93DF93CDB7DEB72C970FB6F89459
:1034C000DEBF0FBECDBF4F83588769877A878B8752
:1034D0009C87CE0107960E94B118882369F08A85DF
:1034E0009B85892B39F04F815885842F85238F3F09
:1034F00009F071C016E05FC086E0FE013796DE017C
:10350000119601900D928A95E1F78A859B85892B0A
:1035100089F388859F8189238F3F61F320919101F1
:1035200030E0C901019687709927409190014817B2
:10353000190671F40E94D017109291011092900117
:1035400086E0E2ECF1E0DF011D928A95E9F7D2CF47
:1035500096E0929FD001939FB00D1124AE56BE4FBE
:10356000FE01319601900D929A95E1F780939101B9
:103570000E941E18BFCF819FC00111248E569E4FFE
:103580000E94B1188823E9F0E09190011E9FF0019C
:103590001124EE56FE4F40815181628173818481F6
:1035A00095810E940E188091900190E0019687709D
:1035B00099278093900180919001909191018913B6
:1035C000DACF2C960FB6F894DEBF0FBECDBFDF91D9
:1035D000CF911F91089569857A858B859C850E947E
:1035E0000E1888CFEF92FF920F931F93CF93DF9324
:1035F0008C01892B89F0F12CEE24E394E8012196CB
:10360000F8018491843709F457C0A0F4823009F49A
:103610003EC048F48130D1F0DF91CF911F910F91DE
:10362000FF90EF9008959CEF980F9037A8F70E94B5
:10363000EA130AC0853709F44CC09CE7980F90370D
:1036400058F78F770E94C6148E0116C00E5F1F4F69
:10365000FE01849190E2980F983060F48770FE2DFF
:1036600001C0FF0F8A95EAF78F2F0E949D1E0E94CE
:10367000C41E02C00E94EA138F2D815008F4BECFF1
:10368000EFE9FFE03197F1F700C00000F6CF0E5FE1
:103690001F4FFE01849190E2980F983050F487708C
:1036A000FE2D01C0FF0F8A95EAF78F2F0E94A31EFF
:1036B000DECF0E94C614E0CF0E5F1F4FFE01C49103
:1036C000C150D0F28FE99FE00197F1F700C00000F0
:1036D000F7CF0E5F1F4FFE01F490CECF0895609399
:1036E000FE017093FF0180930002909301020C94FD
:1036F000BC17CF93DF9300D000D0CDB7DEB769837E
:103700007A838B839C838091FE019091FF01A0912D
:103710000002B091010229813A814B815C81822BA8
:10372000932BA42BB52B8093FE019093FF01A093C4
:103730000002B09301020F900F900F900F90DF9155
:10374000CF910C94BC17CF93DF9300D000D0CDB7AE
:10375000DEB769837A838B839C838091FE0190918D
:10376000FF01A0910002B091010229813A814B81B1
:103770005C8182239323A423B5238093FE0190933D
:10378000FF01A0930002B09301020F900F900F90E1
:103790000F90DF91CF910C94BC17CF93DF9300D0A3
:1037A00000D0CDB7DEB769837A838B839C83809109
:1037B000FE019091FF01A0910002B09101022981C8
:1037C0003A814B815C8182279327A427B527809378
:1037D000FE019093FF01A0930002B09301020F90AD
:1037E0000F900F900F90DF91CF910C94BC17109217
:1037F000FA011092FB011092FC011092FD010C9451
:10380000BC1741E050E060E070E004C0440F551F79
:10381000661F771F8A95D2F74093FA015093FB01F8
:103820006093FC017093FD010C94BC17282F81E07C
:1038300090E0A0E0B0E004C0880F991FAA1FBB1F52
:103840002A95D2F74091FA015091FB016091FC0159
:103850007091FD01842B952BA62BB72B8093FA0139
:103860009093FB01A093FC01B093FD010C94BC1755
:1038700041E050E060E070E004C0440F551F661F57
:10388000771F8A95D2F740955095609570958091F5
:10389000FA019091FB01A091FC01B091FD018423FC
:1038A0009523A623B7238093FA019093FB01A0935D
:1038B000FC01B093FD010C94BC17282F81E090E02F
:1038C000A0E0B0E004C0880F991FAA1FBB1F2A9573
:1038D000D2F74091FA015091FB016091FC01709187
:1038E000FD0184279527A627B7278093FA01909397
:1038F000FB01A093FC01B093FD010C94BC17CF9386
:10390000DF9300D000D0CDB7DEB769837A838B8395
:103910009C838091FA019091FB01A091FC01B091F0
:10392000FD0129813A814B815C81822B932BA42B51
:10393000B52B8093FA019093FB01A093FC01B09307
:10394000FD010F900F900F900F90DF91CF910C948D
:10395000BC17CF93DF9300D000D0CDB7DEB769831B
:103960007A838B839C838091FA019091FB01A091D3
:10397000FC01B091FD0129813A814B815C81822358
:103980009323A423B5238093FA019093FB01A09382
:10399000FC01B093FD010F900F900F900F90DF91FD
:1039A000CF910C94BC17CF93DF9300D000D0CDB74C
:1039B000DEB769837A838B839C838091FA0190912F
:1039C000FB01A091FC01B091FD0129813A814B815D
:1039D0005C8182279327A427B5278093FA019093CF
:1039E000FB01A093FC01B093FD010F900F900F908D
:1039F0000F90DF91CF910C94BC1708959295907F12
:103A0000E92FE80F877041E001C0440F8A95EAF77B
:103A1000E695E695E69585E0E89FF0011124E853E8
:103A2000FE4F30E020E070E05191DF011197CB01B3
:103A3000022E02C0969587950A94E2F781708195CF
:103A40008527842385278C932F5F3F4F25303105B1
:103A500059F70895E92FE295E07FE80F982F9770C6
:103A6000E695E695E69585E0E89FF0011124E85398
:103A7000FE4F50E040E080E0219130E0092E02C08E
:103A8000369527950A94E2F721703327042E01C05A
:103A9000220F0A94EAF7822B4F5F5F4F45305105A2
:103AA00059F70895BF92CF92DF92EF92FF920F9352
:103AB0001F93CF93DF938C01C090FA01D090FB014C
:103AC000E090FC01F090FD018091FE019091FF01DA
:103AD000A0910002B0910102C82AD92AEA2AFB2A41
:103AE000CFE1D0E0BC2ED701C6010C2E04C0B695A4
:103AF000A795979587950A94D2F780FD0EC02197D8
:103B000088F7B12C8B2DDF91CF911F910F91FF90F2
:103B1000EF90DF90CF90BF900895B8018C2F0E9456
:103B20006309019761F3EECFCF93DF93D82FC92FAD
:103B30000E94521D6D2F7C2FDF91CF910C94630951
:103B40001F93CF93DF93162FD72F90918F01992337
:103B500039F0862F972FDF91CF911F910C94941DF0
:103B6000882391F0862F972F0E94521DC82F682F0F
:103B7000812F9D2F0E94FE1C612F7D2F8C2FDF91A6
:103B8000CF911F910C946309862F972F0E942A1DB5
:103B9000C82FF2CF8091020285958595859508956D
:103BA000809102028770089598E0899F9001112406
:103BB000622B609302020C94161C90910202809575
:103BC000892380930202282F277061F4282F082E62
:103BD000000C330B9217130629F085958595859572
:103BE0000C94381C089590910202977081E009F4BA
:103BF00080E00895909113019923E1F0909196024D
:103C000097FF18C0E82FE695E695E695EF3139F174
:103C10002091010130910201E20FF32FF11D877015
:103C200021E030E001C0220F8A95EAF78181822BE2
:103C3000818308952091010130910201F9013296AA
:103C40009FEF40E05191851751F09F3F19F45111BA
:103C500001C0942F4F5F4E31A9F79F3F09F408959B
:103C6000290F311D97FD3A95F901828308959091AE
:103C70001301992301F19091960297FF1CC0E82F40
:103C8000E695E695E695EF3139F120910101309105
:103C90000201E20FF32FF11D877021E030E0A9014E
:103CA00002C0440F551F8A95E2F7CA0180959181A1
:103CB0008923818308952091010130910201F90146
:103CC0003296205E3F4F9191891303C0DF01119717
:103CD0001C92E217F307B9F7089581E090E0E091B4
:103CE0000101F0910201E80FF91F10820196803264
:103CF0009105A9F7089590912602982B909326029A
:103D00000895982F9095809126028923809326020A
:103D1000089510922602089590912502982B909371
:103D200025020895982F90958091250289238093EC
:103D30002502089510922502089590912402982B4F
:103D4000909324020895982F9095809124028923BE
:103D50008093240208951092240208958093030210
:103D600008951092030208952091010130910201FB
:103D7000F9013196205E3F4F80E0919191118F5F64
:103D8000E217F307D1F70895E0910101F0910201E4
:103D9000809126028083E0910101F09102018081EF
:103DA00090912502892B8083E0910101F09102011D
:103DB000808190912402892B808390910302992322
:103DC00061F0E0910101F09102018081892B8083F3
:103DD0000E94B41E81111092030280910101909102
:103DE00002010C94BD126DEE7EEF90E080E00E9427
:103DF0002E2D60E082E090E00E94102D60E083E0D4
:103E000090E00E94102D60E084E090E00E94102D70
:103E100060E085E090E00E94102D60E086E090E098
:103E20000E94102D40E050E0BA0188E090E00C9430
:103E3000222D90E080E00E940A2D9C0181E02D3E21
:103E40003E4F09F080E0089582E090E00C94FC2C55
:103E5000682F82E090E00C94102D83E090E00C94A9
:103E6000FC2C682F83E090E00C94102D84E090E00F
:103E70000C94FC2C682F84E090E00C94102D86E0CC
:103E800090E00C94FC2C682F86E090E00C94102DB0
:103E900080919D02843051F11092280288E190E0D7
:103EA00020E40FB6F894A895809360000FBE20938D
:103EB000600080E00E94120980E00E94430983B7FD
:103EC000817F846083BF83B7816083BF7894889546
:103ED00083B78E7F83BF0FB6F894A895809160005A
:103EE000886180936000109260000FBE089508956D
:103EF0000895CF930E94771F0E943D0C0E94781F67
:103F0000C0E08C2F0E940A0D892B31F4CF5FC530A1
:103F1000C1F780E0CF91089581E0FCCF0E94D017D7
:103F20000E9426240E94B1120C9443091F921FB6CE
:103F30001F9211248F939F93AF93BF938091280278
:103F4000811113C08091920290919302A0919402EA
:103F5000B09195024196A11DB11D8093920290935C
:103F60009302A0939402B0939502BF91AF919F9159
:103F70008F911F901FBE1F90189582E084BD93E023
:103F800095BD9AEF97BD80936E0008952FB7F89472
:103F90008091920290919302A0919402B091950227
:103FA0002FBF0895CF92DF92EF92FF929C014FB7FF
:103FB000F8948091920290919302A0919402B09112
:103FC00095024FBF6C017D01EE24FF24A90170E032
:103FD00060E0C416D506E606F70638F0821B930BA0
:103FE000FF90EF90DF90CF9008950197F7CF1F9249
:103FF0001FB61F9211248F939F93AF93BF9380910D
:10400000920290919302A0919402B0919502019630
:10401000A11DB11D8093920290939302A0939402EC
:10402000B0939502BF91AF919F918F911F901FBE4A
:104030001F9018950E94A528F8942FEF87EA91E623
:10404000215080409040E1F700C0000087E090EBF5
:10405000DC018093A6029093A702A093A802B093DC
:10406000A90288E19CE00FB6F894A89580936000BF
:104070000FBE90936000FFCFAF92BF92CF92DF92BE
:10408000EF92FF920F931F93CF93C0E0AA24A394C3
:10409000B12CE82EF12C8C2F0E940A0D6C0110E03F
:1040A00000E0C501002E02C0880F991F0A94E2F7B4
:1040B0008C219D21892B99F0602F7C2F80E00E941C
:1040C0004609E816F90659F481E0CF911F910F9146
:1040D000FF90EF90DF90CF90BF90AF9008950F5F6B
:1040E0001F4F00311105E9F6CF5FC530A1F680E022
:1040F000ECCFCF93C82F8CE20E943C20882321F084
:104100008C2FCF910C943C2080E0CF910895CF93D9
:10411000DF9300D000D0CDB7DEB70E94191F811108
:1041200002C00E94F31E95E6998308C00E943D0CD0
:104130008FE39CE90197F1F700C00000A981A1502D
:10414000A983A111F3CF89E20E947920811110C1C6
:104150008AE20E94792081110E94F31E85E00E946C
:10416000792081110E941A200E94241F8093270227
:1041700087E00E947920882371F08BE10E947920EA
:10418000882309F4D1C090912702892F8D7F91FF58
:10419000826080932702809127020E94281F0E943C
:1041A000361F90E0909397028093960280EE0E94D3
:1041B0007920882341F090919602892F8E7F90FF7D
:1041C00081608093960289E30E947920882341F0E0
:1041D00090919602892F8D7F91FF82608093960245
:1041E00082EE0E947920882341F090919602892FD7
:1041F0008B7F92FF84608093960286EE0E947920E6
:10420000882341F090919602892F877F93FF8860E1
:104210008093960283EE0E947920882341F090914A
:104220009602892F8F7E94FF80618093960285E3AA
:104230000E947920882341F090919602892F8F7DEA
:1042400095FF80628093960281E30E947920882303
:1042500041F090919602892F8F7B96FF8064809326
:10426000960281E10E947920882341F09091960284
:10427000892F97FB87F98058809396028091960248
:104280000E943A1F87E20E94792089838EE10E9472
:104290007920882319F0B981B260B9838FE10E9437
:1042A0007920882319F029812460298380E20E94E3
:1042B0007920882319F039813860398381E20E949E
:1042C0007920882319F049814061498382E20E9464
:1042D0007920882319F059815062598383E20E9422
:1042E0007920882319F089818064898384E20E947F
:1042F00079208823B1F199819068998389810E94FE
:10430000311F3981232F30E050E040E029833A8388
:104310004B835C83CA01B9010F900F900F900F90EF
:10432000DF91CF910C946F1B8EE00E94792088233F
:1043300039F090912702892F8B7F92FF846029CFDB
:1043400080E10E94792090912702882329F0892F0B
:10435000877F93FF88601DCF892F8E7F90FF8160BC
:1043600018CFA981A111CACF0E942D1F282FCBCF12
:104370000F900F900F900F90DF91CF910895809143
:104380002B0280FF12C06091060185E0689FB0019A
:104390001124759567957595679560387105A8F531
:1043A00061157105A1F1862F089581FF09C0609103
:1043B000060185E0689FB001112475956795EDCFE2
:1043C0006091060182FD0AC080912C028823D1F001
:1043D0009091050160910601891728F085E0689F9A
:1043E000B0011124DACF869FB001112485E0869FA9
:1043F0009001879F300D1124692F70E0C9010E9440
:10440000E22CCBCF65E070E0CECF8FE7089581E05E
:10441000089580912B0280FF0CC06091040170E030
:1044200075956795759567956115710549F1862FA5
:10443000089581FF06C06091040170E0759567954D
:10444000F3CF6091040182FD0BC090912C0299235F
:10445000A1F06091030180910401961738F0682F54
:1044600070E06038710500F38FE70895899FC001FF
:10447000112470E00E94E22CF4CF61E070E0D7CF0D
:1044800081E00895803F31F40E94BF21819580939F
:104490002F020895813F19F40E94BF21F8CF823F77
:1044A00031F40E94BF21819580932E020895833FAD
:1044B00019F40E94BF21F8CF893F29F40E940922F4
:1044C0008093300208958A3F21F40E940922819549
:1044D000F7CF8B3F31F40E940922819580933102FE
:1044E00008958C3F19F40E940922F8CF843F31F4DB
:1044F00080912D02816080932D020895853F21F4E3
:1045000080912D028260F7CF863F21F480912D02A9
:104510008460F1CF873F21F480912D028860EBCF3A
:10452000883F21F480912D028061E5CF8D3F31F4E9
:1045300080912B02816080932B0208958E3F21F49D
:1045400080912B028260F7CF8F3FB9F780912B02C9
:104550008460F1CF90912E02803F41F480912F0230
:1045600087FD10922F02992371F00895813F29F45D
:1045700080912F021816ACF3F6CF823F81F497FF9B
:10458000F2CF10922E0280912F0290913002892B4F
:1045900090913102892B49F710922C020895833FA4
:1045A00019F4191674F3DFCF893F39F48091300282
:1045B0001816CCF610923002D6CF8A3F29F480919B
:1045C000300287FFD0CFF6CF8B3F39F48091310294
:1045D00087FFC9CF10923102C6CF8C3F29F480915A
:1045E00031021816BCF3BFCF843F31F480912D0205
:1045F0008E7F80932D02B7CF853F21F480912D02CD
:104600008D7FF7CF863F21F480912D028B7FF1CFF4
:10461000873F21F480912D02877FEBCF883F21F4E3
:1046200080912D028F7EE5CF8D3F31F480912B025A
:104630008E7F80932B0297CF8E3F21F480912B02A7
:104640008D7FF7CF8F3F09F08ECF80912B028B7F2C
:10465000F0CF8DE292E00E94C8120E94C61F909394
:104660002A028093290208951F93CF93DF9300D0ED
:1046700000D000D0CDB7DEB78091290290912A02F8
:104680000E94D21FAC0180912C022091070130E0E2
:10469000811106C0209108019AE0299F9001112400
:1046A0004217530788F020912E02A0912F02A98370
:1046B00010913002B0913102BE8321110FC09A2FA8
:1046C000912B9B2B09F0B2C026960FB6F894DEBF53
:1046D0000FBECDBFDF91CF911F9108958F3F19F08D
:1046E0008F5F80932C02121624F40E94BF218093C6
:1046F0002E0280912E0287FF05C00E94BF21819566
:1047000080932E022981121624F40E94BF218093E7
:104710002F0280912F0287FF05C00E94BF21819543
:1047200080932F0280912E02882309F455C0309186
:104730002F023D83332309F44FC0282F880F330BFA
:10474000440B550B29833A834B835C83CA01B9011F
:104750000E94D52B23E333E343E35FE369837A834A
:104760008B839C8369817A818B819C810E94392C07
:1047700069837A838B839C8369817A818B819C8115
:104780000E949D2B60932E028D81082E000C990BA8
:10479000AA0BBB0B89839A83AB83BC83BC01CD017D
:1047A0000E94D52B23E333E343E35FE369837A83FA
:1047B0008B839C8369817A818B819C810E94392CB7
:1047C00069837A838B839C8369817A818B819C81C5
:1047D0000E949D2B60932F02111624F40E9409223F
:1047E000809330028091300287FF05C00E94092229
:1047F0008195809330029E81191624F40E9409222B
:10480000809331028091310287FF05C00E94092206
:1048100081958093310226960FB6F894DEBF0FBEC5
:10482000CDBFDF91CF911F910C9429238F3F09F0C9
:1048300057CF68CF85E0EDE2F2E0DF011D928A9567
:10484000E9F710922C0210922B0208950E94191F72
:10485000811102C00E94F31E0E943F1F982F809377
:104860009802817090FF02C0892F86950C941209DE
:1048700080919802982F96958E3130F49F5F990F12
:104880008170892B80939802809198028160809337
:1048900098020E94431F8091980286950C941209F9
:1048A00080919802982F9E7F79F082508093980291
:1048B0008E7F91E009F490E08091980290FB80F95E
:1048C000809398020E94431F8091980286950C94D1
:1048D000120990919802892F8E7F90FF81608093BA
:1048E00098020E94431F90919802892F817090FF37
:1048F00002C0892F86950C94120990919802892FF5
:1049000086958F5F8F7791708031B8F4880F892BEF
:1049100080939802809198028E7F91E009F490E054
:104920008091980290FB80F9809398020E94431F27
:104930008091980286950C94120990939802EACF80
:1049400090919802292F26952827220F9170922B5B
:10495000909398029E7F21E009F420E080919802D4
:1049600020FB80F9809398020E94431F8091980257
:1049700086950C941209809152020895CF93DF938B
:1049800000D00F92CDB7DEB720919D02243019F5EB
:1049900023E029838A839B832093E9008FEF909102
:1049A000E800815095FD06C095ED9A95F1F700005D
:1049B0008111F5CF8091E80085FF0DC050E040E007
:1049C00063E070E0CE0101960E941D278091E8000F
:1049D0008E778093E8000F900F900F90DF91CF912A
:1049E0000895CF93DF9300D00F92CDB7DEB79C012F
:1049F00080919D02843031F582E08983205831090D
:104A00003B832A8383E08093E9008FEF9091E80055
:104A1000815095FD06C095ED9A95F1F70000811142
:104A2000F5CF8091E80085FF0DC050E040E063E0E5
:104A300070E0CE0101960E941D278091E8008E77DC
:104A40008093E8000F900F900F90DF91CF91089521
:104A500020919D022430F1F422E02093E9002FEF11
:104A60003091E800215035FD06C035ED3A95F1F75B
:104A700000002111F5CF2091E80025FF0BC050E088
:104A800040E065E070E00E941D278091E8008E778D
:104A90008093E8000895CF93DF93D82FC92F80919A
:104AA0009D028430F1F4909113019923E9F09091E3
:104AB000960297FF19C08093E9008FEF9091E8006C
:104AC000815095FD06C095E19A95F1F7000081119E
:104AD000F5CF8091E80050E040E060E270E085FDB5
:104AE0001AC0DF91CF91089581E08093E9008FEFA4
:104AF0009091E800815095FD06C095ED9A95F1F7EB
:104B000000008111F5CF8091E80085FFEACF50E0E9
:104B100040E068E070E08D2F9C2F0E941D2780915F
:104B2000E8008E778093E80080E2ED2FFC2FA2E36F
:104B3000B2E001900D928A95E1F7D3CF80919C026B
:104B4000811109C00E94A5280E9402298091E200DB
:104B500084608093E200089510929C020895089565
:104B600008950C948E1F42E061EC81E00E942128A0
:104B700042E061EC82E00E94212842E061EC83E0A7
:104B80000E94212842E261EC84E00C94212880916B
:104B90009F02893089F148F4823009F494C083304F
:104BA00009F44FC0813041F008958A3009F47BC088
:104BB0008B3009F461C0089580919E02813A09F01A
:104BC0003FC08091E800877F8093E8008091A20237
:104BD0009091A302892B61F460E282E392E070E09D
:104BE0000E946C278091E8008B778093E8000895FD
:104BF00060E090E080E0F3CF80919E02813201F589
:104C00008091A2029091A302009711F00397C1F442
:104C10008091E800877F8093E8008091E80082FF20
:104C20000BC08091F100809352028091E8008B7755
:104C30008093E8000C94552880919D028111EDCF5E
:104C4000089580919E02813AD9F78091A2029091B5
:104C5000A302892BA9F78091E800877F8093E80061
:104C60008091E80080FFFCCF809113018093F100D8
:104C70008091E8008E77DCCF80919E02813201F72F
:104C80008091A2029091A302892BD1F68091E80035
:104C9000877F8093E8000E9455288091A00280932E
:104CA00013010C94D01780919E02813249F68091B5
:104CB000E800877F8093E8000E9455288091A10238
:104CC00080935302089580919E02813A09F0B8CFF3
:104CD0008091E800877F8093E8008091E80080FF62
:104CE000FCCF80915302C2CF84B7877F84BF0FB6B9
:104CF000F894A8958091600088618093600010927C
:104D000060000FBE80E880936100109261000E94F5
:104D100000130E94A5280E9402298091E20084606D
:104D20008093E20078940E94822B0E94021389E013
:104D300091E00E94AC1280919D02853029F00E9482
:104D40000C130E947912F7CF0E94481F80919B029A
:104D5000882389F30E94791F882369F30E9407271B
:104D6000EACF9C01DA01892F992783309105C1F0A0
:104D700068F48130910509F445C0029761F48DE62D
:104D800090E029EE3CE02D933C930895813291050B
:104D9000E1F0829739F190E080E030E020E0F3CF5D
:104DA000C9019927213059F08230910559F0E5EE7B
:104DB000FCE0892B81F7849190E09F01E4CFEDEC3A
:104DC000FCE0F9CFE9EBFCE0F6CF643020F7E62F0A
:104DD000F0E0EE0FFF1FEB5CFE4F2081318189E098
:104DE00090E0D1CF6430B8F670E0FB01EE0FFF1F0A
:104DF000E35DFE4F20813181675D7E4FFB01808145
:104E000090E0C1CF82E190E026E53DE0BCCF80E1BB
:104E100089BD82E189BD09B400FEFDCF8091D80033
:104E20008F7D8093D8008091E00082608093E000C5
:104E30008091E00081FDFCCF0895AF92BF92CF92A8
:104E4000DF92FF920F931F93CF93DF936C01EB01DF
:104E50008A010E947428F82E811123C001151105C2
:104E600039F0F80180819181C81BD90BC80ED91E79
:104E7000B12CA12C2097A9F08091E80085FD22C0DB
:104E80008091E8008E778093E80001151105A1F06C
:104E9000F80180819181A80EB91EB182A08285E0BF
:104EA000F82E8F2DDF91CF911F910F91FF90DF9002
:104EB000CF90BF90AF9008950E9474288823D1F2BC
:104EC000F82EEFCFF60181916F018093F1002197C9
:104ED000FFEFAF1ABF0ACECFFC01CB012091A40295
:104EE0003091A5022617370790F0009729F42091FA
:104EF000E8002E772093E80040E0009751F441113C
:104F000008C08091E80082FF31C080E00895C901A7
:104F1000F3CF20919D022223A9F12530A9F1209100
:104F2000E80023FD2DC02091E80022FDEACF20916A
:104F3000E80020FFE2CF3091F3002091F2000097CB
:104F400019F02830310558F041E02830310509F0DA
:104F500040E02091E8002E772093E800CECF4191E9
:104F60004093F10001972F5F3F4FE9CF80919D0261
:104F7000882341F0853041F08091E80083FFC1CF64
:104F800081E0089582E0089583E00895FC01CB015B
:104F90002091A4023091A5022617370790F00097C0
:104FA00029F42091E8002E772093E80040E0009754
:104FB00051F4411108C08091E80082FF32C080E0C6
:104FC0000895C901F3CF20919D022223B1F125302C
:104FD000B1F12091E80023FD2EC02091E80022FDD0
:104FE000EACF2091E80020FFE2CF3091F30020913A
:104FF000F200009719F02830310558F041E02830D0
:10500000310509F040E02091E8002E772093E80078
:10501000CECF44914093F100319601972F5F3F4FDF
:10502000E8CF80919D02882341F0853041F0809146
:10503000E80083FFC0CF81E0089582E0089583E017
:105040000895982F973028F08F708093E90081E0C1
:1050500008959093E900242F762F50E0981731F0AF
:105060007091EC002091ED005091F00021FD02C004
:105070009F5FE8CF3091EB003E7F3093EB003091A3
:10508000ED003D7F3093ED003091EB0031603093C7
:10509000EB007093EC002093ED005093F000209112
:1050A000EE0027FDE5CF80E0089580919E0287FF06
:1050B00013C08091E80082FF06C08091E8008B77E2
:1050C0008093E80004C080919D028111F2CF089581
:1050D00080919D028823D9F38091E80080FFF8CF6A
:1050E0008091E8008E77ECCF2091E4003091E500CC
:1050F00095E6A9012091EC00822F817020FF06C067
:105100008091E80080FF06C080E008952091E800CB
:1051100022FD1AC080919D02882389F0853089F094
:105120008091EB0085FD0FC02091E4003091E500F7
:1051300042175307F9F29150E1F684E0089582E0B6
:10514000089583E0089581E008950E9413290E9444
:105150001B29E0EEF0E0808181608083E8EDF0E0E3
:1051600080818F77808319BCA7EDB0E08C918E7F12
:105170008C9380818F7E808310929C0208950F9380
:105180001F93CF93DF930E9413290E941B29C8ED20
:10519000D0E088818F778883888180688883888140
:1051A0008F7D888319BC10929D02109299021092F3
:1051B0009B0210929A0200EE10E0F80180818B7F32
:1051C000808388818160888342E060E080E00E9483
:1051D0002128E1EEF0E080818E7F8083E2EEF0E036
:1051E000808181608083808188608083F8018081F4
:1051F0008E7F8083888180618883DF91CF911F912A
:105200000F910895E8EDF0E080818F7E8083E7EDD7
:10521000F0E080818160808384E082BF81E08093C0
:105220009C020C94BF28E8EDF0E080818E7F8083A3
:105230001092E20008951092DA001092E1000895B1
:105240001F920F920FB60F9211242F933F934F93FB
:105250005F936F937F938F939F93AF93BF93EF93DE
:10526000FF938091E10082FF0BC08091E20082FFFA
:1052700007C08091E1008B7F8093E1000E94812B29
:105280008091DA0080FF19C08091D80080FF15C09E
:105290008091DA008E7F8093DA008091D90080FFC0
:1052A00094C080E189BD82E189BD09B400FEFDCFD3
:1052B00081E080939D020E949E258091E10080FF05
:1052C00019C08091E20080FF15C08091E2008E7FBE
:1052D0008093E2008091E20080618093E2008091FF
:1052E000D80080628093D80019BC85E080939D022D
:1052F0000E94B0258091E10084FF29C08091E200E6
:1053000084FF25C080E189BD82E189BD09B400FE2A
:10531000FDCF8091D8008F7D8093D8008091E100EF
:105320008F7E8093E1008091E2008F7E8093E20087
:105330008091E20081608093E2008091990288234D
:1053400009F449C084E080939D020E94B1258091B8
:10535000E10083FF29C08091E20083FF25C0809196
:10536000E100877F8093E10082E080939D021092AC
:1053700099028091E1008E7F8093E1008091E200AC
:105380008E7F8093E2008091E20080618093E20052
:1053900042E060E080E00E9421288091F000886077
:1053A0008093F0000E94AF25FF91EF91BF91AF91E4
:1053B0009F918F917F916F915F914F913F912F912D
:1053C0000F900FBE0F901F90189519BC10929D0260
:1053D0000E94AC2572CF8091E30087FD02C081E07E
:1053E000B2CF83E0B0CF1F920F920FB60F9211246D
:1053F0002F933F934F935F936F937F938F939F93DD
:10540000AF93BF93CF93DF93EF93FF93D091E900D6
:10541000DF708091EC00C82FC17080FDC0E8109251
:10542000E9008091F000877F8093F00078940E94DB
:10543000372A1092E9008091F00088608093F00094
:10544000CD2BCF70C093E900FF91EF91DF91CF9109
:10545000BF91AF919F918F917F916F915F914F918C
:105460003F912F910F900FBE0F901F9018951F9393
:10547000CF93DF93CDB7DEB7AA970FB6F894DEBF10
:105480000FBECDBF8EE992E0FC0101962091F100A4
:10549000208322E0863A9207B9F70E94C7258091BF
:1054A000E80083FF16C180919E0290919F029A307E
:1054B00008F00FC1E92FF0E0EF58F24D0C94F62CF4
:1054C000803881F0823809F004C18091A2028F7087
:1054D0008093E9008091EB0085FB882780F910928A
:1054E000E90006C080919A0290919B02911182601E
:1054F0009091E800977F9093E8008093F1001092DC
:10550000F1008091E8008E77E0C0882309F4CEC0D6
:10551000823009F0DEC08091A0028111D1C080915B
:10552000A2028F7009F4D5C08093E9002091EB00AE
:1055300020FFC6C0933031F48091EB0080628093ED
:10554000EB00BEC09091EB0090619093EB0021E0E6
:1055500030E001C0220F8A95EAF72093EA0010920A
:10556000EA008091EB008860EACF8111B2C010910F
:10557000A0021F778091E3008078812B8093E30065
:105580008091E800877F8093E8000E9455288091F1
:10559000E80080FFFCCF8091E30080688093E30007
:1055A00082E0111183E080939D0293C08058823085
:1055B00008F08FC08091A0029091A1028C3D23E061
:1055C0009207A1F583E08A838AE289834FB7F89432
:1055D000DE01139620E03EE051E2E32FF0E050932D
:1055E0005700E49120FF03C0E295EF703F5FEF703A
:1055F0008E2F90E0EA30C0F0C7968D939D932F5F79
:10560000243159F74FBF8091E800877F8093E800ED
:105610006AE270E0CE0101960E946C278091E8005A
:105620008B778093E80055C0C096E7CFAE014F5FFF
:105630005F4F6091A2020E94B126BC01892B09F440
:1056400048C08091E800877F8093E80089819A8133
:105650000E94C627E3CF8038E1F58091E800877F7C
:105660008093E800809199028093F1004ACF8111E4
:1056700030C09091A002923060F58091E800877F61
:105680008093E800909399020E9455288091990296
:10569000882311F084E005C08091E30087FDFACFF4
:1056A00081E080939D020E94B32513C08091A002E7
:1056B000813079F481E0933009F080E080939B029F
:1056C0001092E9008091E800877F8093E8000E94B3
:1056D00055288091E80083FF0AC08091E800877F09
:1056E0008093E8008091EB0080628093EB00AA96A3
:1056F0000FB6F894DEBF0FBECDBFDF91CF911F91E3
:1057000008950895CF9380919D028823A1F0C091C0
:10571000E900CF709091EC00892F817090FD80E8B6
:10572000C82B1092E9008091E80083FD0E94372A7F
:10573000CF70C093E900CF9108950E94A42B689484
:10574000B1110C94332C08950E94182C88F09F57A7
:1057500098F0B92F9927B751B0F0E1F0660F771F95
:10576000881F991F1AF0BA95C9F714C0B13091F08B
:105770000E94322CB1E008950C94322C672F782FC0
:105780008827B85F39F0B93FCCF386957795679550
:10579000B395D9F73EF490958095709561957F4FBC
:1057A0008F4F9F4F0895E89409C097FB3EF4909562
:1057B0008095709561957F4F8F4F9F4F9923A9F0EA
:1057C000F92F96E9BB279395F69587957795679579
:1057D000B795F111F8CFFAF4BB0F11F460FF1BC0BD
:1057E0006F5F7F4F8F4F9F4F16C0882311F096E950
:1057F00011C0772321F09EE8872F762F05C06623FE
:1058000071F096E8862F70E060E02AF09A95660FB6
:10581000771F881FDAF7880F9695879597F908956F
:1058200057FD9058440F551F59F05F3F71F0479551
:10583000880F97FB991F61F09F3F79F08795089536
:10584000121613061406551FF2CF4695F1DF08C055
:10585000161617061806991FF1CF86957105610572
:1058600008940895E894BB2766277727CB0197F91A
:1058700008950E944C2C0C94BD2C0E94AF2C38F043
:105880000E94B62C20F0952311F00C94A62C0C94B9
:10589000AC2C11240C94332C0E94102C70F3959F87
:1058A000C1F3950F50E0551F629FF001729FBB2717
:1058B000F00DB11D639FAA27F00DB11DAA1F649FB3
:1058C0006627B00DA11D661F829F2227B00DA11D66
:1058D000621F739FB00DA11D621F839FA00D611DEC
:1058E000221F749F3327A00D611D231F849F600D0D
:1058F000211D822F762F6A2F11249F5750409AF036
:10590000F1F088234AF0EE0FFF1FBB1F661F771FC1
:10591000881F91505040A9F79E3F510580F00C948C
:10592000A62C0C94332C5F3FE4F3983ED4F3869579
:1059300077956795B795F795E7959F5FC1F7FE2B2C
:10594000880F911D9695879597F9089597F99F6708
:1059500080E870E060E008959FEF80EC08950024F7
:105960000A941616170618060906089500240A94C4
:1059700012161306140605060895092E0394000C4A
:1059800011F4882352F0BB0F40F4BF2B11F460FFD9
:1059900004C06F5F7F4F8F4F9F4F0895AA1BBB1BA3
:1059A00051E107C0AA1FBB1FA617B70710F0A61B1F
:1059B000B70B881F991F5A95A9F780959095BC0140
:1059C000CD01089597FB072E16F4009407D077FDBC
:1059D00009D00E94CE2C07FC05D03EF4909581950D
:1059E0009F4F0895709561957F4F0895EE0FFF1FAB
:1059F0000590F491E02D0994F999FECF92BD81BDF7
:105A0000F89A992780B50895A6E1B0E044E050E007
:105A10000C94362DA8E1B0E042E050E00C94362D15
:105A2000262FF999FECF92BD81BDF89A019700B457
:105A3000021639F01FBA20BD0FB6F894FA9AF99AF7
:105A40000FBE08950396272F0E94112D0E94102D3E
:105A5000252F0E94112D242F0C94112D0196272FF4
:105A60000E94112D0C94102DDC01CB01FC01F99941
:105A7000FECF06C0F2BDE1BDF89A319600B40D929A
:105A800041505040B8F70895F894FFCF40084508BA
:105A90004A084F08540859085E08B608DB0863082E
:105AA0006F08730877087B087F08830887088B08CE
:105AB0008F08930897089B089F08A308A708AB08BE
:105AC000AF085B155B15B315B315F71513168B15DA
:105AD0008B151E168B15E616E61651175A178B15E1
